:100000000208C2C0E0C083C082C0D075D00830C72B
:1000100011C2C790F131E004F0E05403FFBF0302C6
:10002000D217D0D0D082D083D0E032020003E56175
:09003000C394F840037561082235
:10003B0002F40075C26875C3C575C118D2ADD2C2C2
:06004B00E490F131F02207
:0600530002006E7F032293
:06005B000202AE7F00224C
:03006300020C5D2F
:10006B000204EEC0E0C083C082C0D075D010E4FDA6
:10007B00E5D820E1FBC0D9C0DAC0DBC0DCC0DDC0F5
:10008B00DE75BFA3E5B420E10302029653B4FD7500
:10009B00D981120673E5D820E1FB90F129E5DBF05D
:1000AB0090F12BE5DCF0A37403F090F12A743FF090
:1000BB0090F129E0FF5407FEBE0704EF54F8F090CF
:1000CB00F129E0FF20E503020153C330E701D3928E
:1000DB000CEFC330E601D3920DA20CE433FF90F189
:1000EB0021E0FE6F602EEE6020200C1D75D9801272
:1000FB000673E5D820E1FBE5DB30E01853DBFE753A
:10010B00D811E5D830E10D80F990F1217401120678
:10011B00AA4410F0300D1030100D90F121E0700753
:10012B00041206A74420F0A20DE433FF90F127E060
:10013B006F600EEFF090F121E070061206EB443089
:10014B00F090F12AE054DFF090F129E0FE541860B2
:10015B003AC21090F123E0D39400400EE4F090F1FA
:10016B001FF0C2B61206EB4440F090F121E0600A9A
:10017B00EE20E7061206E94450F0E560B401057580
:10018B0060027D0190F12AE054E7F090F129E054F0
:10019B0007FF6064E560B40103756003EF24FD6045
:1001AB003024027048D21090F123E0600270407549
:1001BB00D985120673E5D820E1FBAFDBAEDDEFD3BB
:1001CB009E402C90F1237401F01206A74460F0803E
:1001DB001EC21090F123E0C3940A5013E004F0E028
:1001EB00B40A0C74011206A74470F08002C210907E
:1001FB00F12AE04407F0800F20100C90F11FE06013
:10020B00061206E94480F0ED601790F12BE0FD90AB
:10021B00F129E0FBE4FF120D0690F129E090F125A6
:10022B00F075D98175DA0090F12AE0F5DB90F12CAD
:10023B00E0F5DC75D831E5D820E1FB90F127E0FF44
:10024B0090F121E04FFF90F11FE04F7006E56064E5
:10025B0001701D201435D21475D980120673E5D8A0
:10026B0020E1FB43DB0275D811E5D830E11D80F9A5
:10027B00301418C21475D980120673E5D820E1FB2F
:10028B0053DBFD75D811E5D820E1FB75BFE3D0DE5C
:10029B00D0DDD0DCD0DBD0DAD0D9D0D0D082D083B7
:1002AB00D0E032C0E0C083C082C0D075D010E4FD76
:1002BB00E5D820E1FBC0D9C0DAC0DBC0DCC0DDC0B3
:1002CB00DE75BFA3E5B420E5030204D653B4DF7596
:1002DB00D9C1120673E5D820E1FB90F12DE5DBF0D7
:1002EB0090F12FE5DCF0A37403F090F12E743FF046
:1002FB0090F12DE0FF5407FEBE0704EF54F8F09089
:10030B00F12DE0FF20E503020393C330E701D39205
:10031B000EEFC330E601D3920FA20EE433FF90F140
:10032B0022E0FE6F602EEE6020200E1D75D9C012EC
:10033B000673E5D820E1FBE5DB30E01853DBFE75F7
:10034B00D811E5D830E10D80F990F1227401120635
:10035B00B44410F0300F1030110D90F122E0700703
:10036B00041206B14420F0A20FE433FF90F128E011
:10037B006F600EEFF090F122E070061206F444303D
:10038B00F090F12EE054DFF090F12DE0FE54186068
:10039B003AC21190F124E0D39400400EE4F090F1B6
:1003AB0020F0C2C91206F44440F090F122E0600A3A
:1003BB00EE20E7061206F24450F0E562B401057533
:1003CB0062027D0190F12EE054E7F090F12DE054A4
:1003DB0007FF6064E562B40103756203EF24FD60FF
:1003EB003024027048D21190F124E0600270407505
:1003FB00D9C5120673E5D820E1FBAFDBAEDDEFD339
:10040B009E402C90F1247401F01206B14460F080F0
:10041B001EC21190F124E0C3940A5013E004F0E0E3
:10042B00B40A0C74011206B14470F08002C2119030
:10043B00F12EE04407F0800F20110C90F120E060CA
:10044B00061206F24480F0ED601790F12FE0FD905C
:10045B00F12DE0FB7F01120D0690F12DE090F126BE
:10046B00F075D9C175DA0090F12EE0F5DB90F13023
:10047B00E0F5DC75D831E5D820E1FB90F128E0FF01
:10048B0090F122E04FFF90F120E04F7006E562649F
:10049B0001701D201535D21575D9C0120673E5D81C
:1004AB0020E1FB43DB0275D811E5D830E11D80F963
:1004BB00301518C21575D9C0120673E5D820E1FBAB
:1004CB0053DBFD75D811E5D820E1FB75BFE3D0DE1A
:1004DB00D0DDD0DCD0DBD0DAD0D9D0D0D082D08375
:1004EB00D0E032C0E0C0F0C083C082C0D075D01065
:1004FB00C20BE5D820E1FBC0D9C0DAC0DBC0DCC041
:10050B00DDC0DE75BFA3E5B55420700302063B5377
:10051B00B5DF75D97075DA007800120694E5D8202E
:10052B00E1FB120670E5D820E1FBAEDBEE64207038
:10053B000302063BE568C3940F4003020614AF7039
:10054B00AD170FA8157409F2AD170FA815E4F2EE4D
:10055B0075F008A4FD75DA042406F5D975D800E505
:10056B00D820E1FBAC170FA814E5DEF2E5DD12068F
:10057B0057E5DB120709E5D820E1FBAC170FA814F0
:10058B00E5DCF28DD975D800E5D820E1FBE5DDC4BB
:10059B00543045DEAB170FA813F2ED2404F5D975D3
:1005AB00D800E5D820E1FB120655E5DD120664E51F
:1005BB00DEF2ED2405F5D975D800E5D820E1FB1264
:1005CB000655E5DDF2A817E5DE120709E5D820E1AF
:1005DB00FBE5DC30E410A212920B300B1CE5DB3098
:1005EB00E417D2018013E5DC30E50EA213920B3039
:1005FB000B07E5DB30E402D202ED2407F5D975DBFE
:10060B001912073BE5D820E1FBE568C3940F500AAC
:10061B00120754400975700880040569D20512064B
:10062B006BE5D820E1FBAEDBEE6420600302053FF7
:10063B0075BFE3D0DED0DDD0DCD0DBD0DAD0D9D0C3
:10064B00D0D082D083D0F0D0E032E5DBAC170FA84E
:10065B0014F2AC170FA814E5DCF2AC170FA8142298
:10066B00AF161210A375D95075DA0075D80022F2A7
:10067B00AF160EA817F2AF160EA81722853EDE8511
:10068B003FDD8540DC8541DB22E2F5DB08E2F5DC72
:10069B0008E2F5DD08E2F5DE75D8F12290F11FF0E6
:1006AB00FD90F12BE02290F120F0FD90F12FE02254
:1006BB0075D980E4F5DA2275D9C0E4F5DA22854BD9
:1006CB00DE854ADD8549DC8548DB75D8F92285470F
:1006DB00DE8546DD8545DC8544DB75D8F922E4F003
:1006EB007D0190F12BE022E4F07D0190F12FE022CF
:1006FB00F5DEF5DD75DC0775DBDF75D8F922F2ED7C
:10070B002407F5D975D8002243DB4175D811225344
:10071B00DBBE75D8112275DA04EF75F008A424033B
:10072B00F5D922E4F5DEF5DDF5DCF5DB75D8F9223C
:10073B0075DC0075DD0075DE0075D8F122E4F5DBA4
:10074B00F5DC75DD0875D87122056874102570F518
:10075B0070C394F822E0AD160EA815F22225E02402
:10076B0064F8E6FC08E6FD2224F9F5D9E543540FBD
:10077B00F5DE2275DB01E4F5DC75D83522AC160EFF
:10078B00A814F222AE07EE75F008A42407F9E4FCD6
:10079B007F50AD070FA80576080FA807A63D75D9A2
:1007AB0071F5DAE542C4540FFFAD06757602E4FB32
:1007BB0012148B75DA0489D9E41206FBE5D820E113
:1007CB00FB12068775D8F9E5D820E1FB1206C9E5BF
:1007DB00D820E1FB1206D9E5D820E1FB12072EE564
:1007EB00D820E1FB8EDC75DB6775D831E5D820E1CD
:1007FB00FBE9120773E54330E440430401EEC39475
:10080B0008500A7800E2FFEE9014E48028EEC394BF
:10081B0010500A7801E2FFEE9014DC8018EEC394BE
:10082B0018500A7802E2FFEE9014D480087803E2A5
:10083B00FFEE9014CC93FDEF4DF2E54330E54043D2
:10084B000402EEC39408500A7804E2FFEE9014E41D
:10085B008028EEC39410500A7805E2FFEE9014DC6A
:10086B008018EEC39418500A7806E2FFEE9014D469
:10087B0080087807E2FFEE9014CC93FEEF4EF2E582
:10088B004354404CF5DDE4F5DCF5DB75D8F1E5D8E8
:10089B0020E1FB89D9E54230E309540EF5DEE4F59E
:1008AB00DD8006E4F5DE75DDA0E4F5DCF5DB75D85F
:1008BB00F1E5D820E1FB2275BF0143B70843B7042C
:1008CB0043B60453B6F7780AD9FED8FC43B602E513
:1008DB00B620E1FB30E0F543B70853B7FB75BB9887
:1008EB0053B70F43B7A043B702E5B730E0FB53B79D
:1008FB00F775BF0075BF01740120E003E4F5B47414
:10090B000030E00D7408F5B4E50585BAF045F0F557
:10091B00BA78FEE4F6D8FD90F1007F007E05E4F096
:10092B00A3DFFCDEFA78007FFFE4F208DFFC7581C1
:10093B007702097A0210F1E493A3F8E493A340033E
:10094B00F68001F208DFF48029E493A3F85407241E
:10095B000CC8C333C4540F4420C8834004F45680DE
:10096B000146F6DFE4800B01020408102040809062
:10097B000DAEE47E019360BCA3FF543F30E50954F8
:10098B001FFEE493A360010ECF54C025E060A84086
:10099B00B8E493A3FAE493A3F8E493A3C8C582C87D
:1009AB00CAC583CAF0A3C8C582C8CAC583CADFE952
:1009BB00DEE780BEE709F608DFFA8046E709F208B2
:1009CB00DFFA803E88828C83E709F0A3DFFA80325E
:1009DB00E309F608DFFA8078E309F208DFFA8070A2
:1009EB0088828C83E309F0A3DFFA806489828A838F
:1009FB00E0A3F608DFFA805889828A83E0A3F20825
:100A0B00DFFA804C80D280FA80C680D4806980F275
:100A1B008033801080A680EA809A80A880DA80E2FA
:100A2B0080CA803389828A83ECFAE493A3C8C58297
:100A3B00C8CCC583CCF0A3C8C582C8CCC583CCDFDA
:100A4B00E9DEE7800D89828A83E493A3F608DFF958
:100A5B00ECFAA9F0EDFB2289828A83ECFAE0A3C8B9
:100A6B00C582C8CCC583CCF0A3C8C582C8CCC5830E
:100A7B00CCDFEADEE880DB89828A83E493A3F20889
:100A8B00DFF980CC88F0EF60010E4E60C388F0ED8B
:100A9B002402B4040050B9F582EB2402B4040050D4
:100AAB00AF2323458223900A0F73E577D39400403D
:100ABB0003020B9490F11EE0FFD3940C503475D1CC
:100ACB0092E0FE04F074002E1213ACE5CAF090F124
:100ADB001EE0FE04F074002E1213AC1213B4FEC30E
:100AEB0013F5D21213CBEE640C6003020B947577E3
:100AFB000122E4F5B2EF24F0602424FE602824FEEA
:100B0B00602F24FE603324FE603D24FE604124FEF2
:100B1B006048240E705043800853807F800E5380B2
:100B2B00F7438080800643800843808053C8F7805A
:100B3B00355380F753807F801C43800853807F435D
:100B4B00C808757702801F5380F743808080064367
:100B5B00800843808043C808800C5380F753807F04
:100B6B0053C8F775770375D1921213A2E5CAF01229
:100B7B0013A21213B4D3941C500575D2078007E44B
:100B8B00F5D290F11EF01213CB22EF6401705F755A
:100B9B00D980F5DAF5D8E5D820E1FB120713E5D8B3
:100BAB0020E1FB75D983E4F5DAE53F600575DC01DF
:100BBB008003E4F5DC75D821E5D820E1FB853EDB2D
:100BCB001206BB75D811E5D820E1FBE53E30E102FA
:100BDB00D2141206BBF5D8E5D820E1FB12071AE5B3
:100BEB00D820E1FBE53ED330E401C3921222EF643F
:100BFB0002705E75D9C0F5DAF5D8E5D820E1FB12A5
:100C0B000713E5D820E1FB75D9C3E4F5DAE53F60BE
:100C1B000575DC018003E4F5DC75D821E5D820E10E
:100C2B00FB853EDB1206C275D811E5D820E1FBE54A
:100C3B003E30E102D2151206C2F5D8E5D820E1FB11
:100C4B0012071AE5D820E1FBE53ED330E401C3924D
:100C5B001322C0E0C0F0C083C082C0D075D010C2D8
:100C6B0009C20AE5D820E1FBC0D9C0DAC0DBC0DC81
:100C7B00C0DDC0DE75BFA3E5B55402605A53B5FDA8
:100C8B0075D97075DA007804120694E5D820E1FB6B
:100C9B00120670E5D820E1FBAEDBEE642060387500
:100CAB00DA04EE75F008A412070BE5D820E1FBE59A
:100CBB00DC30E404D2098007E5DC30E502D20A75AA
:100CCB00DB0812073BE5D820E1FB12066BE5D820C9
:100CDB00E1FBAEDBBE20C8300902C2B6300A02C24D
:100CEB00C975BFE3D0DED0DDD0DCD0DBD0DAD0D914
:100CFB00D0D0D082D083D0F0D0E032C0D075D0101D
:100D0B00AE70741B1207880EEF120788701290F1E9
:100D1B0027E025E0FC90F121E04CFC90F11F8010C6
:100D2B0090F128E025E0FC90F122E04CFC90F120C2
:100D3B00E025E025E04CAA160EA812F2AC160EA880
:100D4B0014EDF2AD160EA815EBF2EFAF160EA817B9
:100D5B007013E56A120680E56CF290F123120760BE
:100D6B0090F1258011E56B120680E56DF290F12470
:100D7B0012076090F126120760AF160EA817E41247
:100D8B00067A12067AF2AF16A817F2E568C3940F2B
:100D9B00500A120754400975700880040569D20582
:100DAB00D0D022C112C11301700001610001680093
:100DBB0001690001630041F1210041F1270041F17C
:100DCB001F0041F12300C11041F12500C11441F175
:100DDB00220041F1280041F1200041F12400C11112
:100DEB0041F12600C115016000016E00016A00018E
:100DFB006C00016200016F00016B00016D00046467
:100E0B002B4B2B45017102C103C100C101C102C1B2
:100E1B0005C107C186C11601770000EF75F008A464
:100E2B002407FFE4F57375DA048FD91206FBE5D8B6
:100E3B0020E1FB12068775D8F9E5D820E1FB1206F5
:100E4B00C9E5D820E1FB1206D9E5D820E1FB120752
:100E5B002EE5D820E1FBEF12077375D881E5D8207A
:100E6B00E1FBE54230E326C4540FFEBE0104D2B6CB
:100E7B008002D2C98FD9E542540FF5DE75DD28E427
:100E8B00F5DC75DB0275D8F1E5D820E1FB22E4F542
:100E9B0072EF606924F8601724FE601D24F2604C29
:100EAB0024FE604F24197053AF3D120B95804E7585
:100EBB007201AF3D12078F8044E53EB4FF12E53F50
:100ECB00B4FF0DD2167D4B7C2BAF3D12146B802DD6
:100EDB00E53DB40109AD3FAF3E12113F801FE53D2B
:100EEB00B4021AAD3FAF3E12118A8011AF3D120E04
:100EFB0026800A7572011214258002D207AF722266
:100F0B00E4D208D206D284300004F524C200AF3CF0
:100F1B00120E99AE07C203AF68300105430710C22A
:100F2B0001300205430720C202300505430740C2CA
:100F3B0005300705430780C2078F518F28E4F563FF
:100F4B00BE0107754D01C208800CE4F550F54DE567
:100F5B0024B40102C2081214C3A206300801B35014
:100F6B0008A2089206A2089284C204D2C8221206D2
:100F7B00BB75DB4175D811E5D820E1FB75D982E44F
:100F8B00F5DA75DB4475DC4475D835E5D820E1FB23
:100F9B0012077EE5D820E1FB756A2B756C4B856CCF
:100FAB00DB856ADC75D835E5D820E1FB75DD60752E
:100FBB00D845E5D820E1FB120748E5D820E1FB75C1
:100FCB00B202E5B054DF4420F5B0E5B154DF442064
:100FDB00F5B1E4F5B2221206C275DB4175D811E505
:100FEB00D820E1FB75D9C2E4F5DA75DB5575DC5514
:100FFB0075D835E5D820E1FB12077EE5D820E1FB5B
:10100B00756B2B756D4B856DDB856BDC75D835E59D
:10101B00D820E1FB75DD6075D845E5D820E1FB12E2
:10102B000748E5D820E1FB75B202E5B054FB440854
:10103B00F5B0E5B154FB4408F5B1E4F5B222757493
:10104B0027E57724FE6017146024240270301213F6
:10105B00C4761C7572F175730075750E80241213AE
:10106B00C4761D7572F175730E75750A80141213A3
:10107B00C4761E7572F17573187575068004E4F5E8
:10108B0077220574AF757E00AA72A9737B01A874D1
:10109B007C007D00120A8F2275D948E4F5DA75DBE6
:1010AB00FF75DCFF75DDFF75DEFFEFC3940850099C
:1010BB00EF9014EC93F5DB8024EFC394105009EF01
:1010CB009014E493F5DC8015EFC39418EF5008905F
:1010DB0014DC93F5DD80069014D493F5DE75D8F10E
:1010EB00E5D820E1FB22758F10E4F5B243C90BC2A2
:1010FB00C8C2C9C2CB43B169C2B6F5A14391D0C234
:10110B0096C2974386B8D284C283C28712136D12DC
:10111B000F79120FE11212F91211D512003E1213B0
:10112B003375B91075B81175F9F275F802D2AFD2E3
:10113B00C80213D58F6A8D6C1206BBF5D8E5D82083
:10114B00E1FB120713E5D820E1FB30140343DB026C
:10115B0075D811E5D820E1FB75D984E4F5DA856CF7
:10116B00DB856ADC75D831E5D820E1FB1206BBF5CF
:10117B00D8E5D820E1FB12071AE5D820E1FB228F36
:10118B006B8D6D1206C2F5D8E5D820E1FB12071363
:10119B00E5D820E1FB30150343DB0275D811E5D808
:1011AB0020E1FB75D9C4E4F5DA856DDB856BDC7565
:1011BB00D831E5D820E1FB1206C2F5D8E5D820E1FD
:1011CB00FB12071AE5D820E1FB22E490F11EF0F5A3
:1011DB00D175CA1075CC4075D101F5CAF5CBF5CCDC
:1011EB00F5CDF5CEF5CFF5D2F5D3F5D1F5CE75D14D
:1011FB0004F5CAF5CBF5CCF5CD75D105F5CDF5D309
:10120B00F5D175CDF1F5CF75D10675CD01F5CCF5D1
:10121B00D143CA8022757201E560B4020AE562B45B
:10122B000205E4F5728035E560B40315056EE56ED5
:10123B00C395714003E4F56EE56E1207687F01807C
:10124B0018E562B40316056FE56FC395714003E4AF
:10125B00F56FE56F1207687F0212146BAF7222A84D
:10126B0061E208F527E208F528E208F529E208F51E
:10127B002AE208F52BE208F52CE208F52DE208F539
:10128B002EE208F52FE208F530E208F531E208F519
:10129B0032E208F533E208F534E208F535E208F5F9
:1012AB003674102561F56122E4FFFEFDFCA2B4E467
:1012BB00334207A2B2E4334206EF6003EE700B0D2C
:1012CB00BD00010CBC01E6BDF4E3EF700D90F12104
:1012DB0004F090F123F0D2B68002C2B6EE700C90FF
:1012EB00F12204F090F124F0D2C922C2C922E4F514
:1012FB00A975B2024390105391EF75B2034390104E
:10130B00F5B253AB7FF5AF75AE0575AA1730A603D3
:10131B0043AA2030A50343AA4043AB801214C3E475
:10132B00F54DF52443E8022275723E757300757412
:10133B00F47575007F34AE071FEE60250573E573FA
:10134B00AC727002057214F5828C83E493FE057502
:10135B00E575AC747002057414F5828C83EEF08025
:10136B00D522538FFE75D971E4F5DAE4F5D8E5D8BB
:10137B0020E1FBE5DC20E0F343E8F07F088F708F82
:10138B0061E47803F218F218F218F27807F218F207
:10139B0018F218F20212B390F11EE0FF04F0740081
:1013AB002FF582E434F1F58322E5CBF0E4F5D1F5AA
:1013BB00CE75D10690F11EE022AF740574A80722FA
:1013CB0075D10475CE0175D1D022E4F5B23004038A
:1013DB00120F0B1213FFEF70031214493017083062
:1013EB009505120AB5C2173016E0121220EF70DA0B
:1013FB00C21680D6E577D39400401CE524701212F8
:10140B001049752401300604C284C206E4F57780C6
:10141B00037563017F01227F0022757350AF730543
:10142B0073A807761A0573120056AE730573A806D8
:10143B00A60712005EAE730573A806A60722E56821
:10144B00D39400401AE524701312002E12126A1561
:10145B0068752401300608C284C206227563012216
:10146B008C738D74BF010BD214756001E573FF0291
:10147B00113FD215756201E573FFAD7412118A220B
:10148B008576DB8BDC8DDD8FDE75D8F1E5D820E141
:10149B00FB75DC01E5DC30E00553D8FE80F6227EDF
:1014AB00501207210EAD06A805A60708A6DE08A652
:1014BB00DD08A6DC08A6DB227818763708764D788F
:1014CB001E7614087624854CAC221207211206874F
:1014DB0075D8F1E5D820E1FB220102040810204069
:0914EB0080FEFDFBF7EFDFBF7F7F
:103E0000C0D0C0BFC0E075D01853BFFE30030280E1
:103E10000CD203B70007EFF9B70102D200A6AD0834
:103E2000DE02800587AC098004D204C2C8D0E0D08D
:043E3000BFD0D032FD
:00000001FF
