:100000000204F88C678D68EF700ED20D753501759E
:100010002501E567FF021020D20E75360175260115
:09002000E567FFAD6812107322C0
:0F002B000213BDAF45120D2E227F03227F02224A
:10003B0002F400E572D394004009120FC6E4F57286
:06004B007F01227F00226C
:0300530002022482
:03005B000200663A
:100063000208A0C0E0C083C082C0D075D010E5D81C
:1000730020E1FBC0D9C0DAC0DBC0DCC0DDC0DE7567
:10008300BFA3E5B420E50302020C53B4DF75D9C165
:100093001207F0E5D820E1FB85DB3A90F1227403E7
:1000A300F090F121743FF0E53A5407FFBF07035383
:1000B3003AF8E53A30E55EC330E701D39207E53A13
:1000C300C330E601D39208A207E43365366027E51F
:1000D30036602020071D75D9C01207F0E5D820E14E
:1000E300FBE5DB30E01053DBFE75D811E5D830E1DA
:1000F3000580F975360130080A300A07E5367003C2
:10010300753401A208E433FF654360028F4390F125
:1001130021E054DFF0E53A5418602CC20AE538D3E5
:1001230094004008753800753400C2C9E53660088C
:10013300E53A20E703753600E526B4010375260288
:1001430090F121E054E7F0E53A54076062E526B404
:10015300011675260375D9C01207F0E5D820E1FB17
:10016300120839E5D820E1FBE53A540724FD601F66
:1001730024027030D20A75D9C51207F0E5D820E100
:10018300FBAFDBAEDDEFD39E401C7538018010C2A0
:100193000AE538C3940A500E0538E538B40A0775E2
:1001A30034018002C20A90F121E04407F080062066
:1001B3000A0375340075D9C175DA0090F12112086C
:1001C3008BE5D820E1FBE536454345347006E5264B
:1001D3006401701A200E32D20E75D9C01207F0E5F1
:1001E300D820E1FB12085DE5D830E11D80F9300E1F
:1001F30018C20E75D9C01207F0E5D820E1FB53DB16
:10020300FD75D811E5D820E1FB75BFE3D0DED0DD65
:10021300D0DCD0DBD0DAD0D9D0D0D082D083D0E03C
:1002230032C0E0C083C082C0D075D010E5D820E1D1
:10023300FBC0D9C0DAC0DBC0DCC0DDC0DE75BFA344
:10024300E5B420E1030203BE53B4FD75D98112075F
:10025300F0E5D820E1FB85DB3990F1207403F090C1
:10026300F11F743FF0E5395407FFBF07035339F813
:10027300E53930E55BC330E701D39205E539C33097
:10028300E601D39206A205E43365356024E53560C3
:100293001D20051A1207EDE5D820E1FBE5DB30E070
:1002A3001053DBFE75D811E5D830E10580F97535BB
:1002B3000130060A300907E5357003753301A206DC
:1002C300E433FF654260028F4290F11FE054DFF098
:1002D300E5395418602CC209E537D39400400875FA
:1002E3003700753300C2B6E5356008E53920E7030A
:1002F300753500E525B4010375250290F11FE0541F
:10030300E7F0E5395407605FE525B401137525036C
:100313001207EDE5D820E1FB120839E5D820E1FB0F
:10032300E539540724FD601F24027030D20975D9C2
:10033300851207F0E5D820E1FBAFDBAEDDEFD39EFE
:10034300401C7537018010C209E537C3940A500E6B
:100353000537E537B40A077533018002C20990F106
:100363001FE04407F0800620090375330075D98127
:1003730075DA0090F11F12088BE5D820E1FBE53513
:10038300454245337006E52564017017200D2CD2D4
:100393000D1207EDE5D820E1FB12085DE5D830E149
:1003A3001A80F9300D15C20D1207EDE5D820E1FBD7
:1003B30053DBFD75D811E5D820E1FB75BFE3D0DE33
:1003C300D0DDD0DCD0DBD0DAD0D9D0D0D082D0838E
:1003D300D0E032E709F608DFFA8046E709F208DFE2
:1003E300FA803E88828C83E709F0A3DFFA8032E348
:1003F30009F608DFFA8078E309F208DFFA807088EB
:10040300828C83E309F0A3DFFA806489828A83E024
:10041300A3F608DFFA805889828A83E0A3F208DF13
:10042300FA804C80D280FA80C680D4806980F280C2
:1004330033801080A680EA809A80A880DA80E280E8
:10044300CA803389828A83ECFAE493A3C8C582C83D
:10045300CCC583CCF0A3C8C582C8CCC583CCDFE9A7
:10046300DEE7800D89828A83E493A3F608DFF9EC43
:10047300FAA9F0EDFB2289828A83ECFAE0A3C8C5CE
:1004830082C8CCC583CCF0A3C8C582C8CCC583CCF5
:10049300DFEADEE880DB89828A83E493A3F208DF64
:1004A300F980CC88F0EF60010E4E60C388F0ED2434
:1004B30002B4040050B9F582EB2402B4040050AF37
:1004C300232345822390042673EF4E6012EF6001CD
:1004D3000EEDBB010B89828A83F0A3DFFCDEFA22D7
:1004E30089F05007F709DFFCA9F022BBFEFCF309F2
:1004F300DFFCA9F02275BF0143B70843B70443B635
:100503000453B6F7780AD9FED8FC43B602E5B62001
:10051300E1FB30E0F543B70853B7FB75BB9853B71E
:100523000F43B7A043B702E5B730E0FB53B7F77506
:10053300BF0075BF01740120E003E4F5B47400301B
:10054300E00D7408F5B4E50585BAF045F0F5BA7821
:10055300FEE4F6D8FD90F1007F007E05E4F0A3DF12
:10056300FCDEFA78007FFFE4F208DFFC758172029B
:1005730005B00210C6E493A3F8E493A34003F68006
:1005830001F208DFF48029E493A3F85407240CC88C
:10059300C333C4540F4420C8834004F45680014637
:1005A300F6DFE4800B0102040810204080900E1750
:1005B300E47E019360BCA3FF543F30E509541FFE62
:1005C300E493A360010ECF54C025E060A840B8E4D3
:1005D30093A3FAE493A3F8E493A3C8C582C8CAC556
:1005E30083CAF0A3C8C582C8CAC583CADFE9DEE7E8
:1005F30080BEC202120830E675F008A4FE75DA0464
:1006030012086CE5D820E1FBE5DB540D64096003B7
:100613000206EB756855D20275DB0875D811E5D86B
:1006230020E1FB1207E676091207E6E4F6EE24065C
:10063300F5D9E4F5D8E5D820E1FB1207E6A6DE12EA
:1006430007DEA6DC1207E6A6DB12086BE5D820E17D
:10065300FB1207E6A6DC8ED9E4F5D8E5D820E1FB4A
:10066300E5DDC4543045DEAC680568A804F6EE2425
:1006730004F5D9E4F5D8E5D820E1FB1207CEA6DED0
:10068300EE2405F5D9E4F5D8E5D820E1FB1207CE31
:10069300A6DE12086BE5D820E1FBE5DB5418601AEF
:1006A30075DB1875D811E5D820E1FBEF7007300B27
:1006B30009D2108005300C02D21175DB0175D811F7
:1006C300E5D820E1FBEF12081E12082FE6B5060B52
:1006D300EF12080612082FA606800DE4F5D8E5D818
:1006E30020E1FB120830A6DEA20222E572D39400B9
:1006F30040030207CD90F11EE0FFD3940C503475F4
:10070300D192E0FE04F074002E121322E5CAF09099
:10071300F11EE0FE04F074002E12132212132AFEBF
:10072300C313F5D2121341EE640C60030207CD75B7
:10073300720122E4F5B2EF24F0602424FE60282441
:10074300FE602F24FE603324FE603D24FE604124BE
:10075300FE6048240E705043800853807F800E5300
:1007630080F7438080800643800843808053C8F726
:1007730080355380F753807F801C43800853807FEC
:1007830043C808757202801F5380F7438080800638
:1007930043800843808043C808800C5380F753800C
:1007A3007F53C8F775720375D192121318E5CAF017
:1007B30012131812132AD3941C500575D2078007FD
:1007C300E4F5D290F11EF012134122AD680568A83A
:1007D30005A6DBAD680568A805A6DCAD680568A8B5
:1007E30005A6DDAD680568A8052275D98075DA0010
:1007F30075D80022E4F5DEF5DDF5DCF5DB75D8F917
:1008030022E56525E025E0242CF8E6220EA807F66C
:10081300AF060EA807F6AF0622E56525E025E0241E
:100823002DF8E622EF75F008A4240722FEEF25E059
:1008330025E0242EF82243DB4175D81122856CD99B
:10084300E4F5DEF5DD75DCFF75DBDF2275D980E4C9
:10085300F5DA2275D9C0E4F5DA2243DB0275D81143
:100863002253DBBE75D81122EE2407F5D9E4F5D85F
:1008730022E4F5DBF5DC75DD0875D8712225E0246B
:1008830027F8E6FC08E6FD22E0F5DBA3E0F5DC75DE
:10089300D8312275DB01E4F5DC75D83522C0E0C020
:1008A300F0C083C082C0D075D010C203C204E5D8A3
:1008B30020E1FBC0D9C0DAC0DBC0DCC0DDC0DE751F
:1008C300BFA3E5B55402700302094C53B5FD75D9B6
:1008D3007075DA007800E2F5DB08E2F5DC08E2F592
:1008E300DD08E2F5DE75D8F1E5D820E1FB75D950D6
:1008F3001207F0E5D820E1FBAEDBEE6420604A7519
:10090300DA04EE120828F5D975D800E5D820E1FB02
:10091300E5DC30E404D2038007E5DC30E502D204F1
:1009230075DB0875DC0075DD0075DE0075D8F1E553
:10093300D820E1FBAF1612111875D9501207F0E554
:10094300D820E1FBAEDBBE20B6300302C2B63004D2
:1009530002C2C975BFE3D0DED0DDD0DCD0DBD0DA94
:10096300D0D9D0D0D082D083D0F0D0E032EF70583D
:1009730075D980F5DAF5D8E5D820E1FB120839E519
:10098300D820E1FB75D983E4F5DAE548600575DC29
:10099300018003E4F5DC75D821E5D820E1FB854728
:1009A300DB12084F75D811E5D820E1FBD20DE4F531
:1009B300D8E5D820E1FB120864E5D820E1FBE54740
:1009C300D330E401C3920B22EF6401705775D9C091
:1009D300F5DAF5D8E5D820E1FB120839E5D820E1AE
:1009E300FB75D9C3E4F5DAE548600575DC018003DE
:1009F300E4F5DC75D821E5D820E1FB8547DB120857
:100A03005675D811E5D820E1FBD20EE4F5D8E5D828
:100A130020E1FB120864E5D820E1FBE547D330E48D
:100A230001C3920C22120827BF1908E4FFA20B92FC
:100A33000180067F10A20C9201200103020ADA1240
:100A43000827FE75DA04F5D9E4F5DEF5DD75DC0774
:100A530075DBDF75D8F9E5D820E1FB8547DE8548EE
:100A6300DD8549DC854ADB75D8F9E5D820E1FB85CE
:100A730054DE8553DD8552DC8551DB75D8F9E5D825
:100A830020E1FB8550DE854FDD854EDC854DDB7532
:100A9300D8F1E5D820E1FBEE24F9F5D9E54C540F64
:100AA300F5DE75DD02E4F5DCF5DB75D8F1E5D8207C
:100AB300E1FBE54BC4540FFFBF0104D2B68002D261
:100AC300C98ED975DE0F75DD28E4F5DC75DB02759B
:100AD300D8F1E5D820E1FB22756604C20130010399
:100AE300020B76AF661566EFD394005003020B76C4
:100AF300E54414601914603F14604B2403706EE4E2
:100B0300FF1205F55004A20B9201054480CFE54284
:100B130025E0FFE53325E025E04F4535F5676523FF
:100B23006011300B0BAB23AD67E4FF120F65D201ED
:100B3300856723054480A67F011205F55004A20CA6
:100B4300920105448097E54325E0FFE53425E02540
:100B5300E04F4536F56765246013300C0BAB24ADCD
:100B6300677F01120F65D2018567248000E4F54495
:100B7300020AE0A201E433FF228D688B69E5681263
:100B83000828F56CEF04FF757002E4FB121374750B
:100B9300DA0412084075D8F9E5D820E1FB1207F70B
:100BA300E5D820E1FB1207F7E5D820E1FB1207F7B0
:100BB300E5D820E1FB1207F7E5D820E1FBE5696002
:100BC300058568DC8003E4F5DCE4F5DB75D839E5FD
:100BD300D820E1FB856BDE856BDD856ADC856BDB0D
:100BE30075D8F9E5D820E1FBE569600575DB01807F
:100BF30003E4F5DBE4F5DEF5DDF5DC75D8F1E5D8E6
:100C030020E1FB12084075D8F1E5D820E1FB22D2A0
:100C130000E4F565E4F5B2E56514604914605E240B
:100C230002706A3017051206EEC21720162812004A
:100C33003EEF6004D216801E120ADBEF6004D21668
:100C430080143085117E007F107D007B007A00794F
:100C5300551204CCD216301634308504C2B0C2000B
:100C6300756501802820B70630852230001F3016B5
:100C730019D2B0D2001212AD756502801030150D75
:100C830012002EEF24FF9216C215E4F5653014848A
:100C93001211B1EF6003020C17C214020C178D6519
:100CA300E565120828F566EF04FF757002E4FB1290
:100CB300137475DA04E56624FCF5D91207F7E5D851
:100CC30020E1FB8565DC75DB6775D831E5D820E16C
:100CD300FBE565C39408500B7800E2FFE5659013CC
:100CE300FA802DE565C39410500B7801E2FFE565AA
:100CF3009013F2801BE565C39418500B7802E2FF52
:100D0300E5659013EA80097803E2FFE5659013E255
:100D130093FEEF4EF28566D975DE0EE4F5DDF5DC64
:100D2300F5DB75D8F1E5D820E1FB22E4F566EF6049
:100D33006D24F8601924FE601F24F2605024FE60C5
:100D43005324197057E54614FF12097080507566D5
:100D530001AF461213EB8046E547B4FF14E548B4F0
:100D6300FF0FD214E54614FF7D4B7C2B120003804A
:100D73002DE546B40109AD48AF47121020801FE5A9
:100D830046B4021AAD48AF471210738011AF461232
:100D93000A28800A7566011213998002D213AF667E
:100DA3002212085675DB4175D811E5D820E1FB7591
:100DB300D9C2E4F5DA75DB5575DC5575D835E5D858
:100DC30020E1FB120896E5D820E1FB753C2B753E2C
:100DD3004B853EDB853CDC75D835E5D820E1FB75DA
:100DE300DD6075D845E5D820E1FB120874E5D8200D
:100DF300E1FB75B202E5B054FB4408F5B0E5B1542C
:100E0300FB4408F5B1E4F5B27D107F01120CA17F1C
:100E130001020EFAC10BC10C014400082B01020FA1
:100E23000211121F12013500014200013300013784
:100E330000C109013900C18D0136000143000134AD
:100E430000013800C10A013A00C18E012500013FAB
:100E530000013B00013D00012600014000013C0070
:100E6300013E0004272B4B2B4501410201230001C6
:100E73002400C110C111C112C113C18FC114C11605
:100E8300C1150172000012084F75DB4175D811E5D9
:100E9300D820E1FB75D982E4F5DA75DB4475DC44CF
:100EA30075D835E5D820E1FB120896E5D820E1FB9B
:100EB300753B2B753D4B853DDB853BDC75D835E5B7
:100EC300D820E1FB75DD6075D845E5D820E1FB123C
:100ED3000874E5D820E1FB75B202E5B054DF442085
:100EE300F5B0E5B154DF4420F5B1E4F5B2FDFF12EE
:100EF3000CA1E4FF020EFA8F65EF25E025E0242B19
:100F0300F8E6FDEF12081EFF120804F56B8F6A7BEB
:100F130001AF65120B7C120804F56612081CFFE58D
:100F230066D39F501385666A85666BE4FBAD66AF37
:100F330065120B7C056680E3120804F56612081C33
:100F4300FFE566D39F500BE4FDAF6612127505668D
:100F530080EBE56525E025E0242BF8E6FF7D010223
:100F630012757E55AC060EA804761B0EAC060EA8B1
:100F730004A6070E08A6050E08A6030E08E4F6EF5E
:100F830070120E08A63B0E08A63D0E08A6370E08E3
:100F9300A639801CAF060EA807A63CAF060EA8070D
:100FA300A63EAF060EA807A638AF060EA807A63AB8
:100FB300AF060EA807E4F6AF0612080F12080FA833
:100FC30007F622756855E57224FE60171460242421
:100FD30002703012133A761C7566F17567007569F5
:100FE3000E802412133A761D7566F175670E7569C6
:100FF3000A801412133A761E7566F17567187569BF
:10100300068004E4F572220568AF697E00AA66A92A
:10101300677B01A8687C007D001204A6228F3B8DAC
:101023003D12084F300B0FF5D8E5D820E1FB12082D
:1010330039E5D820E1FBE4F5D8E5D820E1FB120837
:101043005DE5D820E1FB75D984E4F5DA853DDB85E0
:101053003BDC75D831E5D820E1FB300B1212084F89
:10106300F5D8E5D820E1FB120864E5D820E1FB229E
:101073008F3C8D3E120856300C0FF5D8E5D820E191
:10108300FB120839E5D820E1FBE4F5D8E5D820E1E7
:10109300FB12085DE5D820E1FB75D9C4E4F5DA85D8
:1010A3003EDB853CDC75D831E5D820E1FB300C1202
:1010B300120856F5D8E5D820E1FB120864E5D820DC
:1010C300E1FB22758F1075B2015380DF438620E464
:1010D300F5B243C90AC2C9C2CB43B169D2B0C2B6E1
:1010E300F5A14391ECD295C296C297438688C283F9
:1010F300C28712134B1212E31211661213DA121281
:101103003BE4F5B975B82075F9F275F80243E87058
:10111300D2AF020C1275D948E4F5DA75DBFF75DC42
:10112300FF75DDFF75DEFFEFC394085009EF9014E0
:101133000293F5DB8024EFC394105009EF9013FA68
:1011430093F5DC8015EFC39418EF50089013F293D6
:10115300F5DD80069013EA93F5DE75D8F1E5D82026
:10116300E1FB22E490F11EF0F5D175CA1075CC4075
:1011730075D101F5CAF5CBF5CCF5CDF5CEF5CFF5A7
:10118300D2F5D3F5D1F5CE75D104F5CAF5CBF5CCAF
:10119300F5CD75D105F5CDF5D3F5D175CDF1F5CFF8
:1011A30075D10675CD01F5CCF5D143CA802275669C
:1011B30001E525B4020AE526B40205E4F5668035A7
:1011C300E525B40315053FE53FC395414003E4F529
:1011D3003FE53F120880E4FF8018E526B4031605B7
:1011E30040E540C395414003E4F540E540120880E3
:1011F3007F01120003AF6622E4FFFEFDFCA2B4E40C
:10120300334207A2B2E4334206EF6003EE700B0DE4
:10121300BD00010CBC01E6BDF4E3EF700A753501B6
:10122300753701D2B68002C2B6EE70097536017504
:101233003801D2C922C2C92275653E756600756739
:10124300F47568007F29AE071FEE60250566E56625
:10125300AC657002056514F5828C83E493FE056822
:10126300E568AC677002056714F5828C83EEF08045
:10127300D52212082775DA04F5D9ED600875DD80EB
:10128300E4F5DB8006E4F5DD75DB8075D851E5D840
:1012930020E1FB75DB4075D811E5D820E1FB75DD56
:1012A3002075D841E5D820E1FB22E4FF3010047F0C
:1012B30010C210301105430720C211301205430735
:1012C30040C212301305430780C2138F5678187635
:1012D30045087656781E7610D20FC2958555AC22F6
:1012E300E4F5A975B20243900C5391F375B203531D
:1012F30090F3F5B253AB7FF5AF75AE0575AA173012
:10130300A60343AA2030A50343AA4043AB4043AB03
:101313008043E8022290F11EE0FF04F074002FF5F1
:1013230082E434F1F58322E5CBF0E4F5D1F5CE7513
:10133300D10690F11EE022AF680568A8072275D197
:101343000475CE0175D1D022538FFE75D971E4F5A2
:10135300DAE4F5D8E5D820E1FBE5DC20E0F3E47836
:1013630003F218F218F218F21211FB120E89020D91
:10137300A475D971E4F5DA8570DB8BDC8DDD8FDE46
:1013830075D8F1E5D820E1FB75DC01E5DC30E0053B
:1013930053D8FE80F622756755AF670567A80776B1
:1013A3001A0567120034AE670567A806A607120080
:1013B30037AE670567A806A60722C0E0C0D075D080
:1013C3000830C70EC2C70571E5715403FFBF03029E
:1013D300D217D0D0D0E03275C26875C3C575C118B5
:1013E300D2ADD2C2E4F571227E55AD060EA80576C4
:1013F300080EA806A607220102040810204080FE5A
:07140300FDFBF7EFDFBF7FE7
:103E0000C0D0C0BFC0E075D01853BFFE100F06A6CB
:103E1000AD08EE6009DE02800987AC098004D21586
:093E2000D295D0E0D0BFD0D03221
:00000001FF
