:1000000002081FE50FD39400401CE5237012120F65
:10001000AD752301300404C284C204E4F50F8003EB
:090020007561017F01227F0022BD
:0E002B0002121BE560C394F0400375600022D2
:10003B0002F4007818763608764C781E761408761B
:0E004B0023854BAC227F022202006E7F012231
:03005B000202247A
:03006300020BC7C6
:10006B00020578C0E0C0F0C083C082C0D075D0104C
:10007B00E4FBE5D820E1FBC0D9C0DAC0DBC0DCC0B3
:10008B00DDC0DE75BFA3E5B420E10302020A53B461
:10009B00FD75D98112095FE5D820E1FB90F15AE596
:1000AB00DBF090F15CE5DCF0A37403F090F15B7492
:1000BB0038F090F15AE0FF5407FEBE0704EF54F8F6
:1000CB00F090F15AE0FA20E50302015A90F1101278
:1000DB00091C90F1101207EDEAC330E701D3920629
:1000EB0090F15AE0C330E601D39207A206E433FF46
:1000FB0090F106E0FE6F6036EE602020061D75D98C
:10010B008012095FE5D820E1FBE5DB30E02053DB13
:10011B00FE75D811E5D830E11580F9EE7010300678
:10012B000D90F10604F0FB90F15CE04410F0A20797
:10013B00E433FF90F138E06F600EEFF090F106E0E2
:10014B007006120A0B4420F090F15BE054DFF09044
:10015B00F15AE0FF5418603090F100E0D394004066
:10016B000EE4F090F104F0C2B6120A0B4430F0909A
:10017B00F106E0600CEF20E708E4F0120A0B4440B4
:10018B00F090F15BE054E7F090F15AE05407FA601D
:10019B003A90F10812091C90F1081207EDEA24FDC0
:1001AB0060042402701E90F100E0C3940A5015E025
:1001BB0004F0E0B40A0E90F1047401F0FB90F15CD2
:1001CB00E04450F090F15BE04407F0EB601790F1E6
:1001DB005CE0FD90F15AE0FBE4FF120DD890F15A70
:1001EB00E090F102F075D98175DA0090F15BE0F5E2
:1001FB00DB90F15DE0F5DC75D831E5D820E1FB75DE
:10020B00BFE3D0DED0DDD0DCD0DBD0DAD0D9D0D09C
:10021B00D082D083D0F0D0E032C0E0C0F0C083C039
:10022B0082C0D075D010E4FBE5D820E1FBC0D9C06B
:10023B00DAC0DBC0DCC0DDC0DE75BFA3E5B420E5F2
:10024B00030203C053B4DF75D9C112095FE5D8208F
:10025B00E1FB90F15EE5DBF090F160E5DCF0A3747F
:10026B0003F090F15F7438F090F15EE0FF5407FEFD
:10027B00BE0704EF54F8F090F15EE0FA20E50302BC
:10028B00031090F11412091C90F1141207EDEAC33C
:10029B0030E701D3920890F15EE0C330E601D392D0
:1002AB0009A208E433FF90F107E0FE6F6036EE60C1
:1002BB002020081D75D9C012095FE5D820E1FBE5A8
:1002CB00DB30E02053DBFE75D811E5D830E115802B
:1002DB00F9EE701030080D90F10704F0FB90F1600F
:1002EB00E04410F0A209E433FF90F139E06F600EA7
:1002FB00EFF090F107E07006120A124420F090F133
:10030B005FE054DFF090F15EE0FF5418603090F145
:10031B0001E0D39400400EE4F090F105F0C2C91255
:10032B000A124430F090F107E0600CEF20E708E48C
:10033B00F0120A124440F090F15FE054E7F090F1B4
:10034B005EE05407FA603A90F10C12091C90F10C24
:10035B001207EDEA24FD60042402701E90F101E007
:10036B00C3940A5015E004F0E0B40A0E90F1057442
:10037B0001F0FB90F160E04450F090F15FE0440736
:10038B00F0EB601790F160E0FD90F15EE0FB7F0118
:10039B00120DD890F15EE090F103F075D9C175DACA
:1003AB000090F15FE0F5DB90F161E0F5DC75D831A1
:1003BB00E5D820E1FB75BFE3D0DED0DDD0DCD0DBB0
:1003CB00D0DAD0D9D0D0D082D083D0F0D0E032AE3A
:1003DB0007AC05EE75F008A42407F9E4FAEC702AD3
:1003EB00750A4FAF0A050AA8077608050AAF0A0572
:1003FB000AA807A63C75D971F5DAE541C4540FFF7D
:10040B00AD06750E02E4FB1213C575DA0489D9E447
:10041B00F5DEF5DD75DC0775DBDF75D8F9E5D82082
:10042B00E1FB1209A675D8F9E5D820E1FB854ADE78
:10043B008549DD8548DC8547DB75D8F9E5D820E1B2
:10044B00FB8546DE8545DD8544DC8543DB75D8F9C8
:10045B00E5D820E1FBE4F5DEF5DDF5DCF5DB75D861
:10046B00F9E5D820E1FBEC700D8EDC75DB6775D8F8
:10047B0031E5D820E1FBE924F9F5D9E542540FF534
:10048B00DEEC600302051EE54230E436430201EE6A
:10049B00C394085009EE9014249342628024EEC357
:1004AB0094105009EE90141C9342638015EEC39484
:1004BB0018EE5008901414934264800690140C9319
:1004CB004265E54230E536430202EEC3940850091B
:1004DB00EE9014249342668024EEC394105009EEE0
:1004EB0090141C9342678015EEC39418EE5008903D
:1004FB001414934268800690140C934269E542549D
:10050B00404AF5DDE4F5DCF5DB75D8F1E5D830E1F3
:10051B000A80F975D881E5D820E1FB89D9EC7023E5
:10052B00E54130E309540EF5DEE4F5DD8006E4F534
:10053B00DE75DDA0E4F5DCF5DB75D8F1E5D830E14F
:10054B002B80F9E54130E324540FF5DE75DD28757A
:10055B00DB02E541C4540FFFBF0104D2B68002D2C7
:10056B00C9E4F5DC75D8F1E5D820E1FB22C0E0C089
:10057B00F0C083C082C0D075D010E5D820E1FBC09D
:10058B00D9C0DAC0DBC0DCC0DDC0DE75BFA3E5B50A
:10059B00542070030206DD53B5DF75D97075DA0090
:1005AB008562DB8563DC8564DD8565DE75D8F1E509
:1005BB00D820E1FB12095CE5D820E1FBABDBEB6457
:1005CB002070030206DDAF131210FBAA6F74091221
:1005DB00093DE4F2EB75F008A4F975DA042406F58D
:1005EB00D975D800E5D820E1FBAF120AA817E5DED4
:1005FB00F2E5DD120935E5DB120981E5D820E1FBD7
:10060B00AF120AA817E5DCF2E5DC30E40B90F11829
:10061B0012091C90F118800EE5DC30E50C90F11CF2
:10062B0012091C90F11C1207ED89D975D800E5D879
:10063B0020E1FBE5DDC4543045DEAE120AA816F20C
:10064B00E92404F5D975D800E5D820E1FB1209336C
:10065B00E5DD120942E5DEF2E92405F5D975D8008E
:10066B00E5D820E1FB120933E5DDF2AF12A817E55F
:10067B00DE120981E5D820E1FBE5DC30E40AE5DB9D
:10068B0030E412756A01800DE5DC30E508E5DB30FE
:10069B00E403756B01E92407F5D975DB191209B36E
:1006AB00E5D820E1FB056CE56CC3940F500A1209E9
:1006BB00FA400D756F008008756C0F056D756E0136
:1006CB0012095CE5D820E1FBABDBEB642060030295
:1006DB0005D175BFE3D0DED0DDD0DCD0DBD0DAD0F6
:1006EB00D9D0D0D082D083D0F0D0E032E709F60851
:1006FB00DFFA8046E709F208DFFA803E88828C83B6
:10070B00E709F0A3DFFA8032E309F608DFFA807815
:10071B00E309F208DFFA807088828C83E309F0A387
:10072B00DFFA806489828A83E0A3F608DFFA8058B7
:10073B0089828A83E0A3F208DFFA804C80D280FAA8
:10074B0080C680D4806980F28033801080A680EAD6
:10075B00809A80A880DA80E280CA803389828A837B
:10076B00ECFAE493A3C8C582C8CCC583CCF0A3C86C
:10077B00C582C8CCC583CCDFE9DEE7800D89828AD0
:10078B0083E493A3F608DFF9ECFAA9F0EDFB2289D9
:10079B00828A83ECFAE0A3C8C582C8CCC583CCF0AF
:1007AB00A3C8C582C8CCC583CCDFEADEE880DB8971
:1007BB00828A83E493A3F208DFF980CC88F0EF60A0
:1007CB00010E4E60C388F0ED2402B4040050B9F55D
:1007DB0082EB2402B4040050AF23234582239007FD
:1007EB004773ECF0A3EDF0A3EEF0A3EFF022D08370
:1007FB00D082F8E4937012740193700DA3A393F855
:10080B00740193F5828883E4737402936860EFA399
:10081B00A3A380DF75BF0143B70843B70443B604F6
:10082B0053B6F7780AD9FED8FC43B602E5B620E1F9
:10083B00FB30E0F543B70853B7FB75BB9853B70FC5
:10084B0043B7A043B702E5B730E0FB53B7F775BF2B
:10085B000075BF01740120E003E4F5B4740030E0CF
:10086B000D7408F5B4E50585BAF045F0F5BA78FED8
:10087B00E4F6D8FD90F1007F007E05E4F0A3DFFCE9
:10088B00DEFA78007FFFE4F208DFFC758173020863
:10089B00D702105AE493A3F8E493A34003F6800124
:1008AB00F208DFF48029E493A3F85407240CC8C39F
:1008BB0033C4540F4420C8834004F456800146F6D9
:1008CB00DFE4800B0102040810204080900D37E418
:1008DB007E019360BCA3FF543F30E509541FFEE437
:1008EB0093A360010ECF54C025E060A840B8E493F9
:1008FB00A3FAE493A3F8E493A3C8C582C8CAC5833B
:10090B00CAF0A3C8C582C8CAC583CADFE9DEE780BF
:10091B00BEE0FCA3E0FDA3E0FEA3E02401FFE43E68
:10092B00FEE43DFDE43CFC22E5DBAF120AA817F226
:10093B00E5DCAF120AA817F2AF120AA817220EA80D
:10094B0017F2AF160EA817F2AF160EA817F2AF16C6
:10095B002275D95075DA0075D8002214F5828C8374
:10096B00E0AD070FA805F62275D980E4F5DA2275FC
:10097B00D9C0E4F5DA22F2E92407F5D975D80022BB
:10098B0043DB4175D8112253DBBE75D8112275DAC2
:10099B0004EF75F008A42403F5D922853DDE853ECE
:1009AB00DD853FDC8540DB2275DC0075DD0075DE07
:1009BB000075D8F122E4F5DBF5DC75DD0875D8712F
:1009CB0022E0AD160EA815F222E4F5DA8DDB8FDCF2
:1009DB0075D8312275DB01E4F5DC75D8352275DB72
:1009EB004B75DC2B75D83522050BE50BAC0A227445
:1009FB0010256FF56FC394F022AC160EA814F222DB
:100A0B007B0190F15CE0227B0190F160E022E50F2D
:100A1B00D394004003020AF890F159E0FFD3940CF1
:100A2B00503475D192E0FE04F0743A2E12129CE50C
:100A3B00CAF090F159E0FE04F0743A2E12129C1297
:100A4B0012A4FEC313F5D21212BDEE640C600302A6
:100A5B000AF8750F0122E4F5B2EF24F0602424FEAE
:100A6B00602824FE602F24FE603324FE603D24FEAC
:100A7B00604124FE6048240E705043800853807FF1
:100A8B00800E5380F743808080064380084380802C
:100A9B0053C8F780355380F753807F801C43800801
:100AAB0053807F43C808750F02801F5380F7438024
:100ABB0080800643800843808043C808800C5380A5
:100ACB00F753807F53C8F7750F0375D192121292AB
:100ADB00E5CAF01212921212A4D3941C500575D2CF
:100AEB00078007E4F5D290F159F01212BD227F4F27
:100AFB00AE070FA80676060FAE070FA806A63CD2C8
:100B0B000AE53C1207F90B39110B41120B49130B78
:100B1B0051140B59150B61160B69210B71220B79B3
:100B2B00230B81240B89250B912600000B99750A49
:100B3B00F1750B18805A750AF1750B208052750AE6
:100B4B00F1750B28804A750AF1750B308042750AD6
:100B5B00F1750B10803A750AF1750B088032750A26
:100B6B00F1750B1C802A750AF1750B248022750A0E
:100B7B00F1750B2C801A750AF1750B348012750AFE
:100B8B00F1750B14800A750AF1750B0C8002C20A01
:100B9B00300A281209F37002050A1209661209F3CA
:100BAB007002050A1209661209F37002050A12098E
:100BBB0066850B82850A83E0A807F622C0E0C0F0A9
:100BCB00C083C082C0D075D010E5D820E1FBC0D95E
:100BDB00C0DAC0DBC0DCC0DDC0DE75BFA3E5B55439
:100BEB00027003020C7453B5FD75D97075DA00856C
:100BFB0066DB8567DC8568DD8569DE75D8F1E5D850
:100C0B0020E1FB12095CE5D820E1FBABDBEB6420B8
:100C1B00605775DA04EB75F008A4120983E5D82048
:100C2B00E1FBE5DC30E41090F12012091C90F1207F
:100C3B001207EDC2B68013E5DC30E50E90F12412FD
:100C4B00091C90F1241207EDC2C975DB081209B318
:100C5B00E5D820E1FBAF131210FB12095CE5D8209D
:100C6B00E1FBABDBEB642070A975BFE3D0DED0DD1D
:100C7B00D0DCD0DBD0DAD0D9D0D0D082D083D0F0BA
:100C8B00D0E032EF6401705075D980F5DAF5D8E514
:100C9B00D820E1FB12098BE5D820E1FB75D983E461
:100CAB00F5DAE53E600575DC018003E4F5DC75D80B
:100CBB0021E5D820E1FB853DDB12097375D811E5E1
:100CCB00D820E1FB120973F5D8E5D820E1FB120916
:100CDB0092E5D830E15580F9EF6402704E75D9C0BA
:100CEB00F5DAF5D8E5D820E1FB12098BE5D820E140
:100CFB00FB75D9C3E4F5DAE53E600575DC018003CD
:100D0B00E4F5DC75D821E5D820E1FB853DDB120944
:100D1B007A75D811E5D820E1FB12097AF5D8E5D818
:100D2B0020E1FB120992E5D820E1FB2241F1020000
:100D3B0041F10300016F00016000016C00016D00C7
:100D4B0044F1180000000044F1200000000044F1C1
:100D5B00280000000044F1300000000044F11000B6
:100D6B0000000044F1080000000044F11C000000EA
:100D7B000044F1240000000044F12C00000000446A
:100D8B00F1340000000044F1140000000044F10CA9
:100D9B0000000000016A00016B00016E00016100A0
:100DAB0041F1060041F1380041F1040041F100002E
:100DBB0041F1070041F1390041F1050041F101001A
:100DCB00C101C100C184015F00010F0000C0D075DB
:100DDB00D010AE6F741B120A040EEF120A047012BD
:100DEB0090F138E025E0FC90F106E04CFC90F1042A
:100DFB00801090F139E025E0FC90F107E04CFC907D
:100E0B00F105E025E025E04CAA160EA812F2AC166F
:100E1B000EA814EDF2AD160EA815EBF2EF700B90B9
:100E2B00F1001209CC90F102800990F1011209CC6A
:100E3B0090F1031209CCAF160EA817E4F2AF1612FD
:100E4B000949120949A817F2056CE56CC3940F50B8
:100E5B000A1209FA400D756F008008756C0F056D4D
:100E6B00756E01D0D022D205D204D284300005E4B5
:100E7B00F523C200AF3B121007C201E56B25E0451D
:100E8B006AFFE56E25E025E04FFFE55F3333335412
:100E9B00F84FFFE561C4333354C04FF550F527E4E9
:100EAB00F56AF56BF56EF561F55F300209754C016E
:100EBB00C205C202800CE4F54FF54CE523B40102E8
:100ECB00C20512003EA204300501B35008A20592E0
:100EDB0004A2059284C203D2C82212097375DB41A6
:100EEB0075D811E5D820E1FB75D982E4F5DA75DB0D
:100EFB004475DC4475D835E5D820E1FB1209DFE5F4
:100F0B00D820E1FB1209E9E5D820E1FB75DD60751E
:100F1B00D845E5D820E1FB1209C0E5D820E1FB75E7
:100F2B00B202E5B054DF4420F5B0E5B154DF442004
:100F3B00F5B1E4F5B2E5B154DF4420F5B122120965
:100F4B007A75DB4175D811E5D820E1FB75D9C2E480
:100F5B00F5DA75DB5575DC5575D835E5D820E1FB31
:100F6B001209DFE5D820E1FB1209E9E5D820E1FB06
:100F7B0075DD6075D845E5D820E1FB1209C0E5D8D1
:100F8B0020E1FB75B202E5B054FB4408F5B0E5B1C6
:100F9B0054FB4408F5B1E4F5B2E5B154FB4408F554
:100FAB00B122750C26E50F24FE6017146024240271
:100FBB0070301212B6761C750AF1750B3A750D0E60
:100FCB0080241212B6761D750AF1750B48750D0A41
:100FDB0080141212B6761E750AF1750B52750D063A
:100FEB008004E4F50F22050CAF0D7E00AA0AA90BB5
:100FFB007B01A80C7C007D001207C722EF604F24F9
:10100B00FA601924FE601A24FE601C24F26030245E
:10101B00FE603324197034AF3C020C8ED202020AEC
:10102B00F9D202E4FD801AE53CB40107AD3EAF3DB9
:10103B000212FAE53CB40216AD3EAF3D02132A7D17
:10104B0001AF3C0203DAD20202137F755F012275F6
:10105B008F10E4F5B243C90B53C8FE53C8FD53C8F8
:10106B00F743B14053B0BF4391C053903F43869871
:10107B0043801053807F5380F71212C7120EE51274
:10108B000F491211D81210AC1213FD12125875B869
:10109B001175B91075F80275F9F2D2AFD2C80213F7
:1010AB005AE490F159F090F158F0F5D175CA1075DA
:1010BB00CC4075D101F5CAF5CBF5CCF5CDF5CEF518
:1010CB00CFF5D2F5D3F5D1F5CE75D104F5CAF5CB65
:1010DB00F5CCF5CD75D105F5CDF5D3F5D175CDF1B4
:1010EB00F5CF75D10675CD01F5CCF5D143CA80226C
:1010FB0075D948E4F5DA75DBFF75DCFF75DDFF7537
:10110B00DEFFEFC394085009EF90142C93F5DB80AE
:10111B0024EFC394105009EF90142493F5DC801541
:10112B00EFC39418EF500890141C93F5DD800690D4
:10113B00141493F5DE75D8F1E5D820E1FB22A860F5
:10114B00E208F526E208F527E208F528E208F5297A
:10115B00E208F52AE208F52BE208F52CE208F52D5A
:10116B00E208F52EE208F52FE208F530E208F5313A
:10117B00E208F532E208F533E208F534E208F5351A
:10118B0074102560F56022E4FFFEFDFCA2B4E4338D
:10119B004207A2B2E4334206EF6003EE700B0DBDC3
:1011AB0000010CBC01E6BDF4E3EF700D90F10604F9
:1011BB00F090F100F0D2B68002C2B6EE700C90F156
:1011CB000704F090F101F0D2C922C2C922E4F5A9BB
:1011DB0075B2024390105391EFF5B243911075B273
:1011EB0003439010F5B253AB7FF5AF75AE0575AAFF
:1011FB0017F5B230A60343AA2030A50343AA4043F8
:10120B00AB8012003EE4F54CF523C20243E8022208
:10121B00C0E0C083C082C0D075D000C006C007300C
:10122B00C71EC2C790F162E004F0E0FF5403FEBE9C
:10123B000302D20BEFB4640890F162E4F063B08068
:10124B00D007D006D0D0D082D083D0E03275703E9C
:10125B007571007572F47573007F34AE071FEE6005
:10126B00250571E571AC707002057014F5828C83E5
:10127B00E493FE0573E573AC727002057214F5828C
:10128B008C83EEF080D52290F159E0FF04F0743A94
:10129B002FF582E434F1F58322E5CBF0E4F5D19020
:1012AB00F158E0F5CE75D106A3E022AF0C050CA8E2
:1012BB00072275D10475CE0175D1D022538FFE75DF
:1012CB00D971E4F5DAE4F5D8E5D820E1FBE5DC20CB
:1012DB00E0F343E8F07F008F6F8F60E4F565F56412
:1012EB00F563F562F569F568F567F566021192121B
:1012FB000973F5D8E5D820E1FB12098BE5D820E17D
:10130B00FB75D9841209D4E5D820E1FB120973F5DA
:10131B00D8E5D820E1FB120992E5D820E1FB221297
:10132B00097AF5D8E5D820E1FB12098BE5D820E145
:10133B00FB75D9C41209D4E5D820E1FB12097AF563
:10134B00D8E5D820E1FB120992E5D820E1FB22E495
:10135B00F508F509C296C297300303120E711200FD
:10136B0003EF70031213A3300BEE3095EB120A1937
:10137B00C20B80E4750A4FAF0A050AA807761A0557
:10138B000A120050AE0A050AA806A607120056AEAE
:10139B000A050AA806A60722E56CD39400401AE5B5
:1013AB0023701312002E121149156C752301300492
:1013BB0008C284C2042275610122850EDB8BDC8D91
:1013CB00DD8FDE75D8F1E5D820E1FB75DC01E5DCBE
:1013DB0030E00553D8FE80F6227E4F1209990EADF0
:1013EB0006A805A60708A6DE08A6DD08A6DC08A643
:1013FB00DB2275C26875C3C575C118D2ADD2C2E404
:10140B0090F162F0F5B243B180221209991209A64C
:10141B0075D8F1E5D820E1FB220102040810204029
:09142B0080FEFDFBF7EFDFBF7F3F
:103E0000C0D0C0BFC0E075D01853BFFE30010280E3
:103E10000CD201B70007EFF9B70102D200A6AD0836
:103E2000DE02800587AC098004D203C2C8D0E0D08E
:043E3000BFD0D032FD
:00000001FF
